:020000040800F2
:10000000280C002099170008310600083306000864
:10001000370600083B0600083F0600080000000005
:10002000000000000000000000000000430600087F
:1000300045060008000000004706000849060008C1
:10004000B3170008B3170008B3170008B317000868
:10005000B3170008B3170008B3170008B317000858
:10006000B3170008B3170008B3170008B317000848
:10007000B3170008B3170008B3170008B317000838
:10008000B3170008B3170008B3170008B317000828
:10009000B3170008B3170008B3170008B317000818
:1000A000B3170008B3170008B3170008B317000808
:1000B000B317000847100008B3170008B31700086B
:1000C000B3170008B3170008B3170008B3170008E8
:1000D000B3170008BD090008930A0008030C0008C4
:1000E000B3170008B3170008B317000800F002F8B0
:1000F00000F03CF80AA090E8000C82448344AAF186
:100100000107DA4501D100F031F8AFF2090EBAE883
:100110000F0013F0010F18BFFB1A43F0010318473B
:10012000F83F000018400000103A24BF78C878C19A
:10013000FAD8520724BF30C830C144BF04680C60ED
:10014000704700000023002400250026103A28BF35
:1001500078C1FBD8520728BF30C148BF0B60704739
:100160001FB5AFF300801FBD10B510BD03F002F83E
:100170001146FFF7F5FF00F007F803F020F8FFF74E
:10018000F3FF00F0A5FB00007FB500F0C3FA4820A4
:1001900000F040FB00F096FB4FF4165000F0A6FB79
:1001A0004FF4165000F025FC0121082001F08EFECE
:1001B00000F078FD00F0FAFD00F0E2FDCBA2002196
:1001C000084600F04AFE012000F06DFB41F61F4199
:1001D0004FF47A7000F00AFF00F0DEFE0120C749FC
:1001E0000860C749C1F8B401C44908310860C4496E
:1001F000C1F8BC01C3A20021084600F02EFE012078
:1002000000F051FB07E0C3A20021084600F025FEE4
:10021000C82000F013FB01F04AF80028F3D1C1A276
:100220000021084600F019FE012000F03CFB0020F0
:10023000C0490860C0A20021084600F00EFE01205F
:1002400000F031FB01F0FEF8BFA20021084600F0EB
:1002500004FEC1A20121002000F0FFFDC0A2022186
:10026000002000F0FAFD002505E001F085F80120EE
:1002700000F019FB6D1C0A2DF7DBBB49086801F083
:100280002EF900F0DBFC2FE1B848007801287CD182
:100290000020B64908709948006808B9012000E0BC
:1002A00000209649086001F067F80446B04A012131
:1002B0001E2000F0D2FDAFA20221242000F0CDFDCF
:1002C000AF4802880221242000F0EDFDAD480088EF
:1002D00000EB8001B4EB410F58DDA9480088401CB9
:1002E000A74908800020A8490880A5480088A74998
:1002F0000988884276DBA6490988601A03F0E0F88D
:10030000CDE9020121F00041CDE90001A1A00CC816
:10031000009803F0CFF965D89D480088844219DD24
:100320009E480088401C9D49088000250DE08E48AD
:1003300050F8251099480088C0B201F0E7F800F0A5
:100340007DFC0A2000F0AFFA6D1C954800888542BC
:10035000EDDB15E091480088401E9049088000259B
:100360000AE0814951F8250001F0FFF800F066FC31
:100370000A2000F098FA6D1C894800888542F0DB5D
:1003800000207F49088082490C802BE07E4800884D
:10039000401C7D4908800020794908807948008800
:1003A000401E00EB8000B4EB400F1BDA7848008859
:1003B00074490988884215DD00250AE06A4951F828
:1003C000250001F0E9F800F039FC0A2000F06BFA92
:1003D0006D1C734800888542F0DB00206C49088062
:1003E0006E4908806F48007801287DD16EA1704861
:1003F00002F085FE002877D06EA20321002000F0D5
:100400002CFD012000F04FFA6EA20421002000F024
:1004100024FD70A000F08BFB012000F044FA70A1D5
:10042000634802F06CFE00285CD061496F4802F01E
:1004300078FE002540E06EA20321002000F00DFDB3
:100440006A1C0321362000F02EFD012000F02BFA5B
:100450006B4850F82510654802F051FE00282AD05C
:10046000002606E0664850F82500805D65498855FD
:10047000761C0B2EF6DB00206249C87262A20321B3
:1004800000F0EBFC64A20421002000F0E6FC5D4AD1
:100490000421002000F0E1FC012000F004FA62A039
:1004A00000F045FB012000F0FEF9564801F08BF802
:1004B00000F0C4FB05E06D1C514850F825000028F1
:1004C000B9D100BF58A000F032FB022000F0EBF9D8
:1004D00051A20321002000F0C0FC4FA20421002003
:1004E00000F0BBFC00F0AAFBCEE600005379737469
:1004F000656D20537461727420200000B081214228
:1005000000802142445331384232302054657374A4
:100510002020000044533138423230204572726F3F
:100520007220000044533138423230204F4B20209B
:1005300020200000AC01214247534D2053746172CA
:1005400074696E672020000047534D206F6E206E47
:10055000657420202020000054656D703A00000072
:10056000436F756E743A0000100000207F00002079
:1005700080000020202020202020202000000000DB
:1005800006000020020000200C00002004000020D3
:100590000800002000000000000034400A00002095
:1005A000000000206400002052494E470000000077
:1005B000BF010020436865636B2020496E636F6D47
:1005C000696E67004E6F4D61726368696E6720796E
:1005D0006574000041542B434C43430D0000000060
:1005E0002B434C43433A203100000000C000002060
:1005F000436865636B696E6720202020202000001F
:1006000024000020BB0500204D61726368696E679D
:1006100020466F756E6400002020202020202020BE
:1006200020202020202000004154480D0000000020
:10063000704700BFFEE700BFFEE700BFFEE700BF58
:10064000FEE77047704770477047000000200021A8
:10065000674A126842F48032654B1A6000BF644AF0
:10066000126802F40031401C11B9B0F5A06FF6D148
:100670005F4A126812F4003F01D0012100E000211E
:10068000012942D15B4A126842F01002594B1A60AC
:100690001A46126822F003021A601A46126842F0E3
:1006A00002021A60524A5268514B5A601A46526806
:1006B0005A601A46526842F480625A601A4652687A
:1006C00022F47C125A601A46526842F4E8125A60C8
:1006D0001A46126842F080721A6000BF444A1268DB
:1006E00012F0007FFAD0424A526822F00302404BD7
:1006F0005A601A46526842F002025A6000BF3C4AF1
:10070000526802F00C02082AF9D1704710B5FFF7C1
:100710009DFF10BD10B53648006840F00100344917
:100720000860084640683449084031494860084636
:100730000068324908402E4908600846006820F4E5
:10074000802008600846406820F4FE0048604FF4AE
:100750001F008860FFF7DAFF4FF00060284908604B
:1007600010BD10B5002000210022214B5B6803F072
:100770000C0020B1042806D0082828D107E0214B1E
:10078000214C236027E01F4B1F4C236023E0184BB4
:100790005B6803F47011164B5B6803F4803202232C
:1007A00003EB914122B9194B4B43174C23600DE0E9
:1007B0000F4B5B6813F4003F04D0144B4B43124CB7
:1007C000236003E00F4B4B430F4C236003E00D4BC2
:1007D0000D4C236000BF00BF054B5B68C3F30313E0
:1007E0000B4CE05C084B1B68C340074C236010BDFA
:1007F00000100240002002400000FFF8FFFFF6FE5C
:1008000008ED00E000127A004C00002000093D00D5
:100810005000002010B504466FF0040001F02EF8DF
:10082000E11704EB5171C910254A11701046007888
:100830004FF47A714843911C088010BD204A921CE5
:10084000128842434FF0E0235A6100229A6101224C
:100850001A6100BF4FF0E022116911F0010F02D0C0
:1008600011F4803FF6D000224FF0E0231A619A6124
:100870007047134A127842434FF0E0235A61002236
:100880009A6101221A6100BF4FF0E022116911F054
:10089000010F02D011F4803FF6D000224FF0E02388
:1008A0001A619A61704730B50546002405E04FF49F
:1008B0007A70FFF7C3FF601C84B2AC42F7DB30BD37
:1008C0006000002010B54FF4A06000F085FF10BD5F
:1008D000014600BF704700BFE64A128812F0400F81
:1008E000FAD0C2B2E34B1B1D1A80704710B586B018
:1008F0000446012144F2050001F0E8FA4FF40070CB
:10090000ADF8140003208DF8160018208DF817009C
:1009100005A9D94801F030F84FF48060ADF8140013
:1009200004208DF8170005A9D34801F025F82520EB
:100930008DF8000003208DF801008DF802000120E1
:100940008DF80300684600F04CFF01940020ADF8DC
:100950000800ADF80A00ADF80C00ADF810000C204E
:10096000ADF80E0001A9C34802F007FA012240F2D7
:100970002551C04802F098FA0121BE4802F088FAD9
:1009800006B010BD00BFBB49098811F0400FFAD076
:10099000B849091D0880704700210BE000BFB54A27
:1009A000128812F0400FFAD0425CB24B1B1D1A8025
:1009B0004A1C91B2425C002AF0D1704710B540F257
:1009C0002551AC4802F057FB90B1AA4802F0D3FA87
:1009D000C4B2AA48AA4909884454A9480088401CBE
:1009E000A749088008460088FE2801DB002008800F
:1009F00010BD10B586B004460121052001F066FA4D
:100A00000121480401F06FFA0420ADF8140003201E
:100A10008DF8160018208DF8170005A9964800F0EB
:100A2000ABFF0820ADF8140004208DF8170005A9CD
:100A3000914800F0A1FF26208DF8000000208DF8DD
:100A400001008DF8020001208DF80300684600F0D7
:100A5000C8FE01940020ADF80800ADF80A00ADF81A
:100A60000C00ADF810000C20ADF80E00854802F027
:100A700041F901A9834802F080F9012240F2255191
:100A8000804802F011FA01217E4802F001FA06B016
:100A900010BD10B540F225517A4802F0ECFA00285A
:100AA00036D0784802F067FAC4B2774877490988A7
:100AB000445476480088401C7449088008460088E1
:100AC000801E7149085C0D280CD170480088401EBA
:100AD000085C0A2806D16D480088022802DB012044
:100AE0006B49087069480088FF2802DD00206749CB
:100AF0000880684868490988445467480088401C51
:100B00006549088008460088FE2801DB002008802F
:100B100010BD10B5044600BF40215A4802F095FAB6
:100B20000028F9D02146574802F021FA10BD70B5CF
:100B3000044600250CE000BF4021524802F085FA2F
:100B40000028F9D0615D4F4802F011FA681C85B2A7
:100B5000605D0028EFD170BD10B586B0044601215C
:100B6000092001F0B3F90121880401F0BCF94FF428
:100B70008060ADF8140003208DF8160018208DF861
:100B8000170005A9454800F0F7FE4FF40060ADF8E6
:100B9000140004208DF8170005A9404800F0ECFE71
:100BA00027208DF8000003208DF801008DF8020049
:100BB00001208DF80300684600F013FE012188042F
:100BC00001F091F94FF4165001900020ADF80800A3
:100BD000ADF80A00ADF80C00ADF810000C20ADF82F
:100BE0000E0001A92E4802F0C8F8012240F225515A
:100BF0002B4802F059F90121294802F049F906B0C1
:100C000010BD704700BF2649098811F0400FFAD087
:100C10002349091D0880704700210BE000BF204ACE
:100C2000128812F0400FFAD0425C1D4B1B1D1A8037
:100C30004A1C91B2425C002AF0D17047002000BFEC
:100C400004E00021104A1154411C88B2FF28F8DD4D
:100C500000210E4A11800E4A1170704710B50446EB
:100C60002146094802F04BFA08B1012010BD0020CE
:100C7000FCE700000038014000080140BD030020EF
:100C80006800002000440040BF01002066000020F2
:100C900064000020BC0400206A000020000C014019
:100CA0000048004008B54FF47870ADF800001020FF
:100CB0008DF8030003208DF802006946B24800F069
:100CC0005BFE0420ADF8000010208DF80300012029
:100CD0008DF802006946AC4800F04EFE08BD70B5C4
:100CE00004460E464FF48071A74800F0EFFE26B987
:100CF0008021A54800F0EAFE03E08021A24800F030
:100D0000E3FE002517E014F0800F04D040219E4838
:100D100000F0DAFE03E040219B4800F0D7FE6006B9
:100D2000040E2021984800F0D1FE2021964800F0C2
:100D3000CBFE681CC5B2082DE5DB8021924800F08F
:100D4000C3FE4FF48071904800F0BEFE40218E48F3
:100D500000F0BAFE70BD70B504460D4645F0400582
:100D600044F0800400212846FFF7B9FF0021204607
:100D7000FFF7B5FF4FF48071834800F0A5FE70BD0A
:100D800070B500210846FFF7E6FF00250BE00024C0
:100D900005E001210020FFF7A2FF601CC4B2542C23
:100DA000F7DB681CC5B2062DF1DB70BD10B54FF442
:100DB0008071754800F088FE4FF40071724800F0B1
:100DC00085FE0A20FFF73AFD4FF400716E4800F0EF
:100DD0007BFE6420FFF732FD00212120FFF77FFF1B
:100DE00000211320FFF77BFF0021BB20FFF777FFD7
:100DF00000212020FFF773FF00210C20FFF76FFF79
:100E0000FFF7BEFF10BD2DE9F04704460D4616461C
:100E1000DFF87891A6F12000C6B206EB460009EB98
:100E20004009002715E0E819C1B22046FFF793FFFB
:100E30004FF0000808E019F8010B0121FFF74FFF00
:100E400008F1010000F0FF08B8F1060FF3DB781C91
:100E5000C7B2012FE7DBBDE8F0872DE9F04104467A
:100E60000D4616460027B84619E016F8012B29460C
:100E70002046FFF7C8FFA01DC4B2781CC7B20E2FD2
:100E800008DB002405F10800C5B2002708F10100C5
:100E900000F0FF08B8F1060F01DBBDE8F081307803
:100EA0000028E2D1F9E72DE9FE4304460D46164637
:100EB000684600210A460B460EC02EB9302229464C
:100EC0002046FFF7A0FF2FE000270DE00A20B6FB29
:100ED000F0F100FB11602E49085C0DF807000A20B4
:100EE000B6FBF0F6781CC7B2002EEFD1B14611E088
:100EF0001DF80980781EA0EB09001DF800000DF810
:100F00000900781EA0EB09000DF8008009F101002E
:100F100000F0FF0907EBD771B9EB610FE8DB6A4618
:100F200029462046FFF799FFBDE8FE832DE9F041F1
:100F300004460E46174631462046FFF70CFF0025B3
:100F40000AE007EB470105EBC101124A505C0121A1
:100F5000FFF7C5FE681CC5B20C2DF2DB701CC1B2D8
:100F60002046FFF7F8FE0C250AE007EB470105EBEA
:100F7000C101084A505C0121FFF7B1FE681CC5B2EF
:100F8000182DF2DBBDE8F081000C0140923B000817
:100F900070000020BA3D000808B50121082000F0CB
:100FA00095FF4FF47040ADF8000010208DF803005D
:100FB00003208DF8020069460A4800F0DDFC01219B
:100FC000042000F083FF4FF40060ADF80000102013
:100FD0008DF8030003208DF802006946024800F0F6
:100FE000CBFC08BD000C0140000801407FB5044661
:100FF0000D460121022000F076FFADF80840ADF863
:1010000004500020ADF80A00ADF8060001A93248EE
:1010100001F092F8012241212F4801F0D9FB1D2057
:101020008DF8000003208DF8010002208DF80200E9
:1010300001208DF80300684600F0D3FB012126480B
:1010400001F0A1FB7FBD10B500240121224801F071
:101050003CFE00283FD001211F4801F047FE1F48F9
:101060000088401C1D490880084600884EF6602113
:10107000884202DD00201949088018480088184974
:10108000097890FBF1F00A2190FBF1F201FB1200CC
:10109000052802D10120134908701348FFF77CFC92
:1010A000002404E0002010490855601C84B2FF2C85
:1010B000F8DB00200D4908800D48FFF738FD0024BB
:1010C00004E000200A490855601C84B2FF2CF8DBBC
:1010D00000200849088010BD000400407C0000206A
:1010E0007E0000207F000020BC0400206A00002059
:1010F000BD0300206800002010B5C848006820F03B
:101100000F00C749C1F800080846D0F8000840F0B1
:101110000300C24908600020C249086040F2EE2086
:10112000FFF7A7FB0120C049C1F880010F20FFF79E
:10113000A0FB10BD10B50024B848006820F00F00D7
:10114000B749C1F800080846D0F8000840F0080088
:10115000C1F8000804E0601CC4B20120FFF789FB5D
:10116000B0488038006808B1C82CF4DBC82C01DB1B
:10117000012010BD002404E0601CC4B20120FFF770
:1011800078FBA8488038006808B9F02CF4DBF02C14
:1011900001DB0120EDE70020EBE710B59F48006878
:1011A00020F00F009E49C1F800080846D0F800085A
:1011B00040F003009949086000209A490860022025
:1011C000FFF757FB01209849C1F880019448D0F8F7
:1011D000000820F00F009249C1F800080846D0F836
:1011E000000840F008008D4908600C20FFF741FB23
:1011F0008C488038006808B1012400E000243220C7
:10120000FFF737FB204610BD70B50026012408E02B
:10121000FFF7C3FF0546E80140EA6600C6B2601C5E
:10122000C4B2082CF4DD304670BD70B504467B486E
:10123000006820F00F007A49C1F800080846D0F88D
:10124000000840F00300C1F80008012620E004F087
:10125000010564106DB10020724908600220FFF79B
:1012600008FB01207049C1F880013C20FFF701FB19
:101270000CE000206B4908603C20FFF7FAFA0120DF
:101280006949C1F880010220FFF7F3FA701CC6B269
:10129000082EDCDD70BD10B5FFF72EFFFFF74AFF0B
:1012A000CC20FFF7C2FF4420FFF7BFFF10BD10B5F1
:1012B0005E48806940F004005C49886157480068D6
:1012C00020F00F005649C1F800080846D0F8000881
:1012D00040F00300C1F800080846D0F80C0840F0C0
:1012E0000100C1F80C08FFF707FFFFF723FF10BD4F
:1012F0002DE9F04186B0FFF7CEFFFFF7FDFEFFF7C7
:1013000019FFCC20FFF791FFBE20FFF78EFFFFF7FC
:101310007BFF0546FFF778FF0746072F05DDF843FB
:10132000C7B2E843C5B2002400E001243E463002C3
:1013300006B2701906B2304602F0C8FB804602F0D1
:1013400097FBCDE904013AA00CC8049802F0CEF84E
:10135000CDE9020138A00CC8029801F03BFFCDE9AD
:10136000000102F05FF806B21CB1304606B0BDE8DD
:10137000F081704200B2F9E770B5FFF7B9FF04469B
:10138000002C05DA604205B22D202D49087003E0DB
:10139000254620202A4908704FF47A7095FBF0F01A
:1013A00018B920202649487006E04FF47A7095FB62
:1013B000F0F03030224948704FF47A7095FBF0F12C
:1013C00000FB1150642190FBF1F030301C49887013
:1013D00008464078202805D108468078302801D179
:1013E00020208870642095FBF0F100FB11500A2149
:1013F00090FBF1F030301249C8702E2008710A209D
:1014000095FBF0F100FB115030300D49487143203D
:1014100088710020C871204670BD0000000801409E
:1014200000000140800121420000214200100240E2
:10143000000000000000E43F000000000000E03F6A
:101440008000002010B5FFF7F9FB05E088A0FFF74A
:101450006EFB0120FFF727FA874800780028F5D0B7
:10146000FFF7ECFB05E085A0FFF761FB0120FFF72C
:101470001AFA85A0FFF7F2FB0028F4D0FFF7DEFB95
:1014800010BD70B504460D4681A0FFF750FB01204A
:10149000FFF709FA81A0FFF74AFB0120FFF703FAE3
:1014A00082A0FFF744FB0120FFF7FDF984A0FFF7BE
:1014B0003EFB2846FFF73BFB7BA0FFF738FB0120F4
:1014C000FFF7F1F92046FFF732FB8048FFF72FFBCB
:1014D0001A20FFF71EFB0320FFF7E5F970BD10B5DA
:1014E00004467BA203210020FFF7B7FC224603211C
:1014F0001220FFF7B2FC214679480068FFF7C1FFD0
:1015000078A203210020FFF7A8FC10BD70B50446A7
:101510000D4678A203210020FFF79FFC2A460321F5
:101520001220FFF79AFC012C04D129467548006867
:10153000FFF7A7FF022C04D1294673480068FFF784
:10154000A0FF032C04D1294670480068FFF799FFDB
:10155000032C04DD29466E480068FFF792FF61A264
:1015600003210020FFF779FC70BD10B5044669A285
:1015700003210020FFF771FC224603211220FFF710
:101580006CFC214667480068FFF77BFF55A20321EA
:101590000020FFF762FC10BD10B5044662A20321D3
:1015A0000020FFF75AFC224603211220FFF755FCCA
:1015B000214661480068FFF764FF4AA2032100202A
:1015C000FFF74BFC10BD10B504465CA203210020C0
:1015D000FFF743FC224603211220FFF73EFC214681
:1015E0005A480068FFF74DFF3EA203210020FFF795
:1015F00034FC10BD10B5044655A0FFF798FA022040
:10160000FFF751F954A0FFF792FA2046FFF78FFA3F
:1016100052A0FFF78CFA0120FFF745F950A20321F1
:101620000020FFF71AFC224603211220FFF715FCC9
:101630004FA0FFF77CFA0120FFF735F907E0FFF72D
:10164000FDFA4EA0FFF773FA0220FFF72CF94EA027
:10165000FFF704FB0028F2D00320FFF724F93CA099
:10166000FFF765FA1FA203210020FFF7F6FB10BD6C
:101670004154490D000000006400002041542B43F8
:101680004F50533F0D000000434F50533A000000AD
:1016900041542B434D47463D310D000041542B43EF
:1016A0005343533D2247534D220D000041542B43D9
:1016B000534D503D31372C3136372C302C300D0006
:1016C00041542B434D47533D220000008000002031
:1016D00053534D20202020202020202020200000B7
:1016E00088000020202020202020202020202020D2
:1016F0002020000041534D202020202020202020A9
:10170000202000009000002094000020980000207D
:101710009C00002052534D202020202020202020FB
:1017200020200000A000002043534D202020202036
:101730002020202020200000A400002051534D2014
:101740002020202020202020202000008C000020AD
:101750004154480D00000000415444003B0D00007E
:1017600043616C2020202020202020202020000009
:1017700041542B434C43433D310D000041542B4316
:101780004C43430D000000002B434C43433A2031AF
:101790002C302C30000000000948804709480047E1
:1017A000FEE7FEE7FEE7FEE7FEE7FEE7FEE7FEE711
:1017B000FEE7FEE704480549054A064B704700006E
:1017C00015070008ED00000828060020280C00205E
:1017D000280800202808002032490143324A1160BD
:1017E000704770B5002100230F22C4780CB32E4C33
:1017F000246804F4E064C4F5E064210AC1F1040340
:10180000CA40447804FA03F1847814402143090162
:10181000264C0678A155047804F01F050124AC403D
:1018200005786D114FF0E02606EB8505C5F80041FF
:1018300009E0047804F01F040125A5401C4C06783B
:10184000761144F8265070BD1A4A0A400243164BDE
:101850001B1F1A60704741B1134A121D12680243E0
:101860004FF0E023C3F8102D07E00F4A121D126855
:1018700082434FF0E023C3F8102D7047042808D1AD
:101880004FF0E021096941F004014FF0E0221161BD
:1018900007E04FF0E021096921F004014FF0E02258
:1018A000116170470000FA050CED00E000E400E073
:1018B00080E100E080FFFF1F10B50446C748844266
:1018C00008D10121042000F01BFB0021042000F0BE
:1018D00017FB46E0C248844208D10121082000F0ED
:1018E0000FFB0021082000F00BFB3AE0BD488442CA
:1018F00008D10121102000F003FB0021102000F08E
:10190000FFFA2EE0B848844208D10121202000F0DF
:10191000F7FA0021202000F0F3FA22E0B3488442D5
:1019200008D10121402000F0EBFA0021402000F016
:10193000E7FA16E0AE48844208D10121802000F089
:10194000DFFA0021802000F0DBFA0AE0A948844297
:1019500007D10121801500F0D3FA0021A01500F075
:10196000CFFA10BD10B50121084600F0C9FA0021D8
:10197000012000F0C5FA10BDF0B5002200230024BC
:1019800000250026002791F803C00CF00F0291F803
:1019900003C01CF0100F03D091F802C04CEA020201
:1019A000B1F800C01CF0FF0F31D0066800242BE016
:1019B0004FF0010C0CFA04F5B1F800C00CEA050375
:1019C000AB4220D1A5004FF00F0C0CFA05F7BE4337
:1019D00002FA05FC4CEA060691F803C0BCF1280F98
:1019E00006D14FF0010C0CFA04FCC0F814C00AE058
:1019F00091F803C0BCF1480F05D14FF0010C0CFA6F
:101A000004FCC0F810C0641C082CD1D30660B1F8E7
:101A100000C0BCF1FF0F34DD466800242EE004F165
:101A2000080C4FF0010E0EFA0CF5B1F800C00CEAEC
:101A30000503AB4221D1A5004FF00F0C0CFA05F7BE
:101A4000BE4302FA05FC4CEA060691F803C0BCF15D
:101A5000280F05D104F1080C0EFA0CFEC0F814E0B2
:101A600091F803C0BCF1480F07D104F1080C4FF006
:101A7000010E0EFA0CFEC0F810E0641C082CCED348
:101A80004660F0BD4FF6FF71018002218170042194
:101A9000C17070470246002093680B4201D00120BC
:101AA00000E0002070470146886880B27047024617
:101AB0000020D3680B4201D0012000E000207047D5
:101AC0000146C86880B27047016170474161704744
:101AD0000AB1016100E041617047C16070474FF495
:101AE00080320A43826181618261826982697047C2
:101AF0000022414B1A684FF680731A4042EA0012E6
:101B00000A433D4B1A6070473C49C8617047F0B5C5
:101B1000002200230024002500F00046B6F1004F0B
:101B200002D1354EF46901E0334E7468C0F30345C9
:101B300082B200F44016B6F5401F08D124F070645C
:101B40002D4E766826F070662B4F7E6012E000F412
:101B50008016B6F5801F06D1032606FA05F39C43CE
:101B600044F0706406E0460D360102FA06F6B4430E
:101B700044F0706421B1460D360102FA06F6344392
:101B800000F00046B6F1004F02D11B4EF46101E0B7
:101B9000194E7460F0BD30B500228B071C0F0F2367
:101BA00003FA04F2144B08338C1053F82440944386
:101BB0008D1043F825408C1053F824308C07240FE7
:101BC00000FA04F423430C4C08348D1044F82530FB
:101BD00030BD0A49DC310860704700000008014050
:101BE000000C0140001001400014014000180140A9
:101BF000001C014000200140000001400000204284
:101C0000DB48006840F00100D94908600846406898
:101C1000D8490840D649486008460068D649084077
:101C2000D34908600846006820F480200860084610
:101C3000406820F4FE0048604FF41F008860704741
:101C4000CB49096821F48031C94A116011460968FD
:101C500021F480211160B0F5803F03D0B0F5802FD2
:101C60000ED106E0C249096841F48031C04A1160D2
:101C700007E0BF49096841F4A021BD4A116000E0B6
:101C800000BF00BF704710B50146002200230020AE
:101C90004A11012A02D1B64C236806E0022A02D179
:101CA000B34C236A01E0B24C636A01F01F020124C5
:101CB00094401C4201D0012000E0002010BD70B50E
:101CC00000240025002600BF3120FFF7DCFF064678
:101CD000641CB4F5A06F01D0002EF5D03120FFF7C1
:101CE000D2FF08B1012500E00025284670BD002183
:101CF0009F4A116821F0F80141EAC0011160704764
:101D00009E49086070470022994B5A6822F47C1261
:101D100040EA01031A43964B5A6070479749086698
:101D200070470021924A516821F00301014351603C
:101D300070478F48406800F00C00704700218C4AC3
:101D4000516821F0F0010143516070470021884A39
:101D5000516821F4E0610143516070470021844AD9
:101D6000516821F4605141EAC0015160704729B1C6
:101D70007F4A527A02437E4B5A7206E07C4A527A7C
:101D8000C343DBB21A407A4B5A7270477B49D83151
:101D9000086070470021764A516821F440410143B0
:101DA000516070470021724A20321170704A82F8E7
:101DB0002010012802D004280AD104E001216C4A35
:101DC0002032117005E00521694A2032117000E0CF
:101DD00000BF00BF70476A49086070476449096ADC
:101DE0000143634A1162704765494439086070478E
:101DF00030B500210022002300245D4D6D6805F000
:101E00000C0121B1042905D0082923D105E05D4D3D
:101E1000056022E05B4D05601FE0554D6D6805F4DF
:101E20007012534D6D6805F48033022505EB924224
:101E30001BB9554D554305600BE04D4D6D6815F4CC
:101E4000003F03D0504D5543056002E04D4D5543D2
:101E5000056002E04B4D056000BF00BF444D6D685A
:101E600005F0F0010909494D6C5C0568E5404560E5
:101E70003F4D6D6805F4E061090A444D6C5C4568AE
:101E8000E54085603A4D6D6805F46051C90A3F4DE3
:101E90006C5C4568E540C560354D6D6805F44041B2
:101EA000890B3A4D10356C5CC568B5FBF4F50561DE
:101EB00030BD29B12E4A526902432D4B5A6104E0CC
:101EC0002B4A526982432A4B5A61704729B1284AEA
:101ED00092690243264B9A6104E0254A9269824343
:101EE000234B9A61704729B1214AD2690243204BA2
:101EF000DA6104E01E4AD26982431D4BDA61704701
:101F000029B11B4AD2680243194BDA6004E0184A2F
:101F1000D2688243164BDA60704729B1144A1269BD
:101F20000243134B1A6104E0114A12698243104BB9
:101F30001A61704712494039086070470F49C864F8
:101F400070470B49C87170470948406A40F080707B
:101F500007494862704701460020054A92680A42D4
:101F600001D0012000E000207047014988727047CD
:101F7000001002400000FFF8FFFFF6FE00004242A2
:101F80008004424200127A0000093D00AC000020AB
:101F900010B50446FF48844208D10121C014FFF760
:101FA000AFFF0021E014FFF7ABFFC4E0B4F1804FB6
:101FB00008D101210846FFF7B0FF00210120FFF7FB
:101FC000ACFFB8E0F448844208D101210220FFF7B9
:101FD000A4FF00210220FFF7A0FFACE0EF488442FD
:101FE00008D101210420FFF798FF00210420FFF70A
:101FF00094FFA0E0EA48844208D101210820FFF7BD
:102000008CFF00210820FFF788FF94E0E548844218
:1020100008D101211020FFF780FF00211020FFF7D9
:102020007CFF88E0E048844208D101212020FFF7AE
:1020300074FF00212020FFF770FF7CE0DB48844222
:1020400008D101214014FFF75BFF00216014FFF766
:1020500057FF70E0D648844209D10121C804FFF738
:102060004FFF00214FF40020FFF74AFF63E0D14803
:10207000844209D101210805FFF742FF00214FF4F6
:102080008010FFF73DFF56E0CB48844209D1012183
:102090004805FFF735FF00214FF40010FFF730FF30
:1020A00049E0C648844208D101214020FFF735FFAE
:1020B00000214020FFF731FF3DE0C148844208D1B4
:1020C00001218020FFF729FF00218020FFF725FF55
:1020D00031E0BC48844208D101218015FFF71DFF83
:1020E0000021A015FFF719FF25E0B748844209D168
:1020F00001210804FFF704FF00214FF48030FFF7AF
:10210000FFFE18E0B148844209D101214804FFF7DD
:10211000F7FE00214FF40030FFF7F2FE0BE0AC4871
:10212000844208D101218804FFF7EAFE00214FF420
:102130008020FFF7E5FE10BD00220288954B9842F3
:102140000ED09A4B98420BD0B0F1804F08D0924BF2
:10215000984205D0914B984202D0914B984204D1BD
:102160004FF68F731A404B881A438E4B984207D014
:102170008D4B984204D04FF6FF431A40CB881A4348
:1021800002808B8883850B880385824B98420BD015
:10219000864B984208D08C4B984205D08B4B984286
:1021A00002D08B4B984201D10B7A038601238382A4
:1021B000704770B5002200230024058C4FF6FE7690
:1021C00035400584038C8488028B4FF68F752A4036
:1021D000B51E2A400D882A43751E2B400D892B43BE
:1021E0004D882B436B4DA8420BD0704DA84208D0B0
:1021F000754DA84205D0754DA84202D0744DA84235
:1022000013D14FF6F7752B404D892B434FF6FB75D5
:102210002B408D882B434FF6FF652C404FF6FF5522
:102220002C408D892C43CD892C4384800283CD881A
:102230008586038470BD70B5002200230024058CC0
:102240004FF6EF7635400584038C8488028B48F680
:10225000FF752A404FF6FF452A400D882D0642EAB9
:1022600015424FF6DF752B400D892D0543EA1543C6
:102270004D882D0543EA1543464DA84202D04B4DEB
:10228000A8421BD14FF67F752B404D892D0543EA9F
:1022900015434FF6BF752B408D882D0543EA154336
:1022A0004FF6FF352C404FF2FF752C408D89AD0461
:1022B00044EA1544CD89AD0444EA15448480028380
:1022C000CD880587038470BD70B5002200230024EB
:1022D000058C4FF6FF6635400584038C8488828B1D
:1022E0004FF68F752A404FF6FC752A400D882A4319
:1022F0004FF6FF552B400D892D0643EA15434D88B7
:102300002D0643EA1543234DA84202D0274DA8428B
:102310001BD14FF2FF752B404D892D0643EA154323
:102320004FF6FF352B408D882D0643EA15434EF6B8
:10233000FF752C404DF6FF752C408D892D0544EA24
:102340001544CD892D0544EA154484808283CD88C7
:102350008587038470BD70B5002200230024058C9E
:102360004EF6FF7635400584038C8488828B48F6D0
:10237000FF752A404FF6FF452A400D882D0642EA98
:1023800015424DF6FF752B400D892D0743EA154385
:102390004D881FE0002C0140000400400008004070
:1023A000000C0040001000400014004000340140C8
:1023B000004C014000500140005401400018004012
:1023C000001C00400020004000400140004401404B
:1023D000004801402D0743EA1543F84DA84202D0BA
:1023E000F74DA84206D14BF6FF752C408D89AD05FF
:1023F00044EA154484808283CD88A0F84050038449
:1024000070BD828B4FF2FF331A408283828B0B06A2
:1024100042EA134282837047F0B50024002500266B
:10242000078C4EF6FF7C07EA0C070784848B058C2B
:102430000F073E0C40F6FF473C40170644EA17449E
:102440001F0744EA1744DD4FB8420ED0DC4FB842B4
:102450000BD0B0F1804F08D0DA4FB84205D0DA4F38
:10246000B84202D0D94FB84206D14DF6FF773D4071
:1024700046F480573D4305E047F6FF573D4041F4A1
:1024800080573D4384830584F0BD828B4FF6F37300
:102490001A408283828B0A4382837047F0B50024FE
:1024A00000250026078C4FF6FF6C07EA0C0707840F
:1024B000848B058C0F063E0C4FF60C773C401F05B5
:1024C00042EA17473C43BD4FB8420ED0BC4FB8421A
:1024D0000BD0B0F1804F08D0BA4FB84205D0BA4FF8
:1024E000B84202D0B94FB84206D14FF6FF573D402F
:1024F00046F480773D4305E04FF2FF573D4041F4FD
:1025000080773D4384830584F0BD028B4FF2FF3317
:102510001A400283028B0B0642EA13420283704781
:10252000F0B5002400250026078C4FF6EF7C07EA63
:102530000C070784048B058C0F053E0C40F6FF4703
:102540003C401F0744EA1744170644EA17449B4FD0
:10255000B8420ED09A4FB8420BD0B0F1804F08D09D
:10256000984FB84205D0984FB84202D0974FB84222
:1025700006D14FF6DF773D4046F010073D4305E0BA
:102580004FF65F773D4041F010073D4304830584DB
:10259000F0BD028B4FF6F3731A400283028B0A439D
:1025A00002837047F0B500240025068C4FF6FE77B5
:1025B0003E400684048B058C4FF60C7634401E0595
:1025C00042EA164634437D4EB0420ED07C4EB042B5
:1025D0000BD0B0F1804F08D07A4EB04205D07A4E81
:1025E000B04202D0794EB04206D14FF6FD7635406A
:1025F00041F00106354305E04FF6F576354041F0F0
:102600000106354304830584F0BD70B504460D46CC
:102610006A4884420ED06A4884420BD0B4F1804F9D
:1026200008D06848844205D06748844202D0674891
:10263000844200D100E000BF288850B92B89AA88C5
:1026400069882046FFF7AEFFE9882046FFF7A1FF23
:1026500025E0288804280AD12B89AA886988204681
:10266000FFF75EFFE9882046FFF74FFF17E0288855
:1026700008280AD12B89AA8869882046FFF70EFF0F
:10268000E9882046FFF701FF09E02B89AA886988BD
:102690002046FFF7C1FEE9882046FFF7B2FE70BD75
:1026A0002DE9F04104460D4600260127688808B947
:1026B000022600E00026A888012801D1022700E0B8
:1026C00001272888A0B92B89AA8869882046FFF7A6
:1026D00069FFE9882046FFF75CFF2B893A463146BF
:1026E0002046FFF71DFFE9882046FFF70EFF13E0A5
:1026F0002B89AA8869882046FFF712FFE9882046BF
:10270000FFF703FF2B893A4631462046FFF74AFF81
:10271000E9882046FFF73DFFBDE8F0810A884B8835
:102720001A438B881A43CB881A430B891A434B8967
:102730001A438B891A43A0F8442070474FF6FF7163
:10274000818000210180C180418001727047002199
:10275000018041808180C180018141818181C1816D
:102760007047002101804180012181800021C180CA
:10277000018170470021018041808180C1800181F9
:1027800041818181704721B1028842F001020280BB
:1027900004E002884FF6FE731A400280704731B1A0
:1027A000B0F8442042F40042A0F8442005E0B0F81C
:1027B0004420C2F30E02A0F844207047002C0140D0
:1027C000003401400004004000080040000C0040BC
:1027D00010B51AB183890B43838104E08389CC430C
:1027E000A4B22340838110BD8182704741EA020375
:1027F000A0F84830704710B51AB183890B43838124
:1028000004E08389CC43A4B22340838110BD0189B5
:102810004FF6F872114001817047002202894FF68D
:102820008F731A400A430281704730B504460D4643
:1028300029462046FFF7F1FF208940F0070020815C
:1028400030BD2DE9F04104460D4616461F46602D69
:1028500006D13B46012231462046FFF761FE05E0E6
:102860003B46012231462046FFF79CFE2946204682
:10287000FFF7D3FF208940F007002081BDE8F081F9
:1028800030B500240489E4B21D0642EA15450D4323
:102890002C43048130BD2DE9F04104460D46164617
:1028A000984600274346324629462046FFF7E8FF70
:1028B00027894FF6F870074047F007074FF68F70EB
:1028C000074047F070072781BDE8F081F0B5044666
:1028D0000D4616461F463B46324629462046FFF720
:1028E000CFFF208940F480402081F0BD01858282A5
:1028F0007047002202884FF68F731A400A43028005
:102900007047F0B50024002500260489058B068C4D
:102910004FF6F8773C400C434FF6FC473D4040F201
:1029200001173D434FF6DD773E401F0542EA17474A
:102930003E43048105830684F0BD0022028B4FF6DE
:102940008F731A400A43028370470022028B48F6B5
:10295000FF731A400B0642EA1342028370470022BB
:10296000828B4FF68F731A400A438283704700228E
:10297000828B48F6FF731A400B0642EA13428283A9
:10298000704721B1028842F08002028004E0028890
:102990004FF67F731A400280704721B1828842F05F
:1029A0000402828004E082884FF6FB731A40828022
:1029B000704721B1828842F00802828004E0828858
:1029C0004FF6F7731A408280704721B1828842F037
:1029D0000102828004E082884FF6FE731A408280F2
:1029E00070470022028B4FF6F7731A400A430283A6
:1029F00070470022028B4FF2FF731A400B0642EA27
:102A00001342028370470022828B4FF6F7731A40FD
:102A10000A43828370470022828B4FF2FF731A4071
:102A20000B0642EA1342828370470022028B4FF664
:102A3000FB731A400A43028370470022028B4FF651
:102A4000FF331A400B0642EA13420283704700220A
:102A5000828B4FF6FB731A400A4382837047002231
:102A6000828B4FF6FF331A400B0642EA13428283F1
:102A700070470022028B4FF67F731A400A4302838D
:102A800070470022028BC2F30E020B0642EA134289
:102A9000028370470022828B4FF67F731A400A43ED
:102AA000828370470022828BC2F30E020B0642EA39
:102AB0001342828370470022028C4FF6FD731A4046
:102AC0000A43028470470022028C4FF6F7731A40C3
:102AD0000A43028470470022028C4FF6DF731A40CB
:102AE0000B0542EA1342028470470022028C4FF623
:102AF0007F731A400B0542EA13420284704700229A
:102B0000028C4FF6FF531A400B0642EA134202842E
:102B100070470022028C4FF2FF731A400B0642EA04
:102B20001342028470470022028C4DF6FF731A4054
:102B30000B0742EA13420284704730B50023012498
:102B40008C40A3B2048CDD43ADB22C400484048CD1
:102B500002FA01F5ADB22C43048430BD30B5002338
:102B600004248C40A3B2048CDD43ADB22C40048419
:102B7000048C02FA01F5ADB22C43048430BD70B56B
:102B80000023002403461846183301258D40ACB2BB
:102B9000058CE643B6B23540058409B1082909D150
:102BA00003EB61031D6825F070051D601D6815436A
:102BB0001D600CE00D1FADB203EB65031D6825F42D
:102BC000E0451D601D68160645EA16451D6070BD8E
:102BD00021B1028842F00202028004E002884FF62E
:102BE000FD731A400280704721B1028842F004024E
:102BF000028004E002884FF6FB731A40028070479F
:102C000021B1828842F08002828004E082884FF6FF
:102C10007F731A408280704702884FF6F7731A401C
:102C2000028002880A430280704782884FF68F73C1
:102C30001A40828082880A438280704702894FF658
:102C4000F8731A40028102890A430281704702899F
:102C50004FF67F731A40028102890A43028170474E
:102C600081847047818570478186704701877047EE
:102C700081877047A0F84010704702884FF6FF43E5
:102C80001A40028002880A43028070470146888EFB
:102C900070470146088F70470146888F704701468C
:102CA000B1F8400070470146888C70470146088D96
:102CB000704702460020138A0B4201D0012000E039
:102CC00000207047CA430282704730B50246002098
:102CD00000230024158A05EA0103958905EA010409
:102CE00013B10CB1012000E0002030BDCA430282C4
:102CF0007047000010B50446FB48844209D1012109
:102D00008803FFF7FDF800214FF48040FFF7F8F843
:102D100032E0F648844209D101214804FFF7FDF86A
:102D200000214FF40030FFF7F8F825E0F048844226
:102D300009D101218804FFF7F0F800214FF4802029
:102D4000FFF7EBF818E0EB48844209D10121C804F1
:102D5000FFF7E3F800214FF40020FFF7DEF80BE067
:102D6000E548844208D101210805FFF7D6F8002183
:102D70004FF48010FFF7D1F810BD2DE9F04786B071
:102D800004460D460026002700BFB146B246A8897A
:102D900000B100BFA246268A4CF6FF700640E888C4
:102DA00006432682A6894EF6F3100640A888298994
:102DB0000843698908430643A681A68A4FF6FF4067
:102DC0000640A8890643A68201A8FFF711F85446D9
:102DD000C548824501D1049F00E0039FA08910F4FB
:102DE000004F08D007EBC70000EB07102968490027
:102DF000B0FBF1F807E007EBC70000EB071029680C
:102E00008900B0FBF1F86420B8FBF0F0060130094E
:102E1000642101FB1089A08910F4004F09D03221F0
:102E200001EBC9006421B0FBF1F000F0070006439C
:102E300008E0322101EB09106421B0FBF1F000F051
:102E40000F000643268106B0BDE8F0874FF4165107
:102E5000016000218180C18001810C21418100211C
:102E60008181704710B50022028A4FF2FF031A4099
:102E70000B884C8823438C882343CC8823431A43F4
:102E8000028210BD0021018041808180C180704795
:102E900021B1828942F40052828104E082894DF698
:102EA000FF731A4082817047F0B500240025002688
:102EB0000023A1F510676A3F00D100BF0346C1F3AC
:102EC000421401F01F05012707FA05F6012C01D174
:102ED0000C3304E0022C01D1103300E014331AB19A
:102EE0001F6837431F6002E01F68B7431F60F0BDD3
:102EF00010B51AB1838A0B43838204E0838ACC43E2
:102F0000A4B22340838210BD028A4FF6F0731A40A8
:102F10000282028A0A430282704782894FF2FF735B
:102F20001A40828182890A438281704721B1828955
:102F300042F00202828104E082894FF6FD731A405A
:102F400082817047028A4FF6DF731A400282028A3A
:102F50000A430282704721B1028A42F4804202820F
:102F600004E0028A4BF6FF731A4002827047C1F3F5
:102F700008028280704701468888C0F308007047C5
:102F8000818941F0010181817047028BD2B20283B5
:102F9000028B42EA012202837047028B02F47F42D5
:102FA0000283028B0A430283704721B1828A42F076
:102FB0002002828204E0828A4FF6DF731A40828206
:102FC000704721B1828A42F01002828204E0828A34
:102FD0004FF6EF731A408282704721B1828A42F025
:102FE0000802828204E0828A4FF6F7731A408282D6
:102FF000704721B1828942F40042828103E08289D4
:10300000C2F30E028281704721B1828A42F40062CB
:10301000828204E0828A4FF2FF731A4082827047F4
:10302000828A4FF6FB731A408282828A0A43828226
:10303000704721B1828A42F00202828204E0828AD1
:103040004FF6FD731A408282704702460020B1F5A8
:10305000007F00D100BF13880B4201D0012000E0A7
:103060000020704701F40072B2F5007F00D100BF6C
:10307000CA430280704770B5024600230024002531
:103080000020A1F510666A3E00D100BFC1F34215D1
:1030900001F01F04012606FA04F4012D02D19689DD
:1030A000344006E0022D02D1168A344001E0968AAF
:1030B00034400B12012606FA03F31688334014B18C
:1030C0000BB1012000E0002070BD10B500220023EC
:1030D000A1F510646A3C00D100BF0A12012494409B
:1030E000A3B2DC43048010BD00380140004400401E
:1030F00000480040004C004000500040704730B590
:1031000005460B462A4613F8014B12F8010B08B18D
:10311000A042F8D00CB9284630BD0028FCD06D1C68
:10312000EFE740EA0103024630B59B0710D14FF0AC
:10313000013400E008C208C91D1B9D4315EAC41FE5
:10314000F8D013F0FF0102F8011B0ED01B0AF8E7BC
:1031500011F8014B02F8014B002C134605D011F871
:10316000014B5A1C002C1C70F2D130BD70477047C7
:1031700070477047754600F029F8AE46050069466D
:10318000534620F00700854618B020B5FEF712FB25
:10319000BDE820404FF000064FF000074FF0000858
:1031A0004FF0000B21F00701AC46ACE8C009ACE8D9
:1031B000C009ACE8C009ACE8C0098D4670470446B8
:1031C000AFF300802046FCF7DAFF000000487047AC
:1031D000C805002010B591EA030F48BF83F00043F3
:1031E00000F1B482841A71EB030E05D2121943EB7D
:1031F0000E03001B61EB0E01DFF880C14FEA115492
:10320000A4EB135E1CEA430F18BF9CEA445F7DD019
:1032100023EA0C0321EA045143F48013DEF1200C6D
:1032200038D322FA0EFC10EB0C0023FA0EFC41EB13
:103230000C01CEF1200C03FA0CFC10EB0C0051F148
:103240000001B1F5801FCEF1200C38D201EB045102
:10325000BDE8104012FA0CF258BF7047401C38BF4E
:103260005FEA420218BF7047002814BF20F0010037
:1032700041F100014FEA410313F5001F38BF7047C9
:1032800028BFB1F1C0413E494FF0000048BF41F0B6
:1032900000417047012A43EB0302AEF1200EDEF13C
:1032A0001F0C32BF4FF0000C23FA0EF310EB03009B
:1032B00041EB0451B4EB115FCAD0A1EB045101F50D
:1032C0008011490801EB0451BDE810405FEA30006D
:1032D0000CD350F1000038BF12FA0CFC06D1C3E742
:1032E000401C38BF5FEA4202C4D1BDE74FEA410348
:1032F00013F5001F38BF704728BFB1F1C041204906
:103300004FF0000048BF41F0004170479CEA445F25
:1033100008D0BDE8104011EA5C0F04BF01F0004185
:1033200000207047012841EB0104012A43EB030E02
:10333000644598BFE645DFF84CC0BDE8104000F298
:103340002580AFF30080012841EB0100012A43EB07
:103350000302904208D010F5001F04BF0020704700
:1033600019464FF00000704791EA030F4FF000003C
:1033700058BF704704494FF0000070470000E0FF5D
:103380000000F07F110000040000F87F02494FF0B8
:10339000000000F0B4BB00000000F87F02494FF0CD
:1033A000000000F0ACBB00000000F87F00B54FF457
:1033B000001E1EEB410F08BF002898BF1EEB430FF5
:1033C00008BF002A26D85DF804EBAFF3008051EA6D
:1033D000030C06D4994208BF904210D6EFF3008048
:1033E00070478B4208BF8242EFF3008020F010400C
:1033F00038BF40F0004080F3008878BF70474FF03E
:10340000010C38BFBCF1020F68BFBCF1000FEFF335
:10341000008070475DF804EB1CF4502F3FF4B6AF0A
:1034200000F09FBB4FEAC12303B40A1543EA50538F
:1034300018BF43F000430DD4A2F56072D2F19E0292
:1034400040F32180FF2ACCBF002123FA02F1084675
:1034500002B070474FEA4252520D08BF23F00043BA
:103460004FF00001A2F56072D2F19E020BDBFF2A41
:10347000DCBF23FA02FCA1EB0C010029DEBF02B085
:1034800008467047FFE703BCDFF830C0012841EB76
:10349000010313F5001F88BF4CF4803C3FF67EAF5C
:1034A0003EBF6FEAE17080F000407047AFF30080EC
:1034B0006FEAE17080F0004070470000C80002042D
:1034C00010F0004314BF4142014643F08043B1FA7B
:1034D00081FC03F1F87311FA0CF1A3EB0C534FEAE2
:1034E000415008BF704703EBE1217047DFF8B4C1DA
:1034F00070B53CEA111E18BF3CEA131E00F0A6800E
:1035000081EA03050CEA111E4EEAD57E1CEA13156A
:1035100018BF11EA0C1F00F08F80AE4421EA4C1155
:1035200023EA4C13AEF17F7E41F4801143F4801303
:10353000A1FB024CA0FB0365361955EB0C05A1FB62
:10354000034C4CF10003A0FB021C16EB0C0665417A
:1035500053F10003094218BF46F001064FF0140C66
:10356000B3F5007F4CF1000CCCF1200425FA0CF2ED
:1035700003FA04F141EA020105FA04F026FA0CF21A
:1035800040EA02006FF0030242EB2E4216FA04F406
:1035900001EB025585EACE7115D05FEA440C38BFC5
:1035A0004FF040440FD308BF43F0004350F10000F8
:1035B00041F1000110EAD37F4FF0804420EAD3703C
:1035C00018BF4FF0404415F0004FDFF8DCC017D4AF
:1035D00015EA0C0F18BF3CEA010C11D070BD5FEA70
:1035E000CE7454BF1CF4000F1CF4800F0ABF4FF0C0
:1035F00080444FF0404410F1010041F10001E2E746
:10360000BEF1806FA2BFA1F1C04144F0130C4CF099
:10361000805CBDE8704006DA4FF0000001F1C04167
:1036200001F0004170476FF0000041EA500181EA6B
:1036300010314FF0000070474FEACE714FF000009C
:1036400070BD4FEACE714FF0000070BD4FEA4105EA
:10365000B5EB4C1F4FEA430608BF002898BFB6EBF6
:103660004C1F08BF002ABDE87040DFF840C03FF69D
:103670008DAEAFF300804FF4001CBCEB410F98BF40
:10368000BCEB430F0AD84FF0000081EA030101F0C0
:10369000004141F0FE4141F47001704704494FF090
:1036A000000070470000FF070000F07F13000004D7
:1036B0000000F87F53EA010C17D41CF5801F58BF97
:1036C000BCF5801F00F106808B4218BF704708BF11
:1036D0008242704707D713F5801F58BF11F5801F2E
:1036E00019D48B4270479B4270471CF5801F08D548
:1036F000BCF5801FF7D5994218BF704708BF9042AC
:1037000070474FF4001C1CEB430F38BF1CEB410FFC
:1037100001D29942704783EA010182EA000081EAFE
:10372000030380EA0202DFF810C083EA010182EAA3
:103730000000FFF73BBE00001900160410B591EA27
:10374000030F48BF83F000433FF54CAD841A71EB83
:10375000030E07D212198EF0004E43EB0E03001B2E
:1037600061EB0E01DFF810C24FEA1154A4EB135EB7
:103770001CEA430F18BF9CEA445F00F0C58023EAAF
:103780006C03524221EA0451C3EB6C0338BF5B1E49
:10379000DEF1200C29D322FA0EFC10EB0C0043FAC8
:1037A0000EFC41EB0C01CEF1200C03FA0CFC10EBEB
:1037B0000C0051F10001CEF1200C2DD401EB04518D
:1037C000BDE8104012FA0CF24FF0120C4CF0804C95
:1037D00058BF7047401C1CBFB2F1004F7047002813
:1037E0000CBF491C20F00100704712EB020C43EBA8
:1037F000030218BF4FF0010C4CEA4202AEF1200E5A
:10380000DEF11E0C63D943FA0EFC10EB0C0051F1F3
:10381000FF31CEF11E0CD1D50CF1010C12FA0CFCCB
:10382000404141EB010101EB445E5FEA5E5E10D96D
:1038300001EB0451BDE8104010EBDC7038BFBCF167
:10384000004F18BF704700280CBF491C20F0010032
:1038500070473FD211F5001108BF002801D1BDE823
:1038600010403FD04FEAD42E24F40064B1FA81F224
:10387000202AA4F1020404BFB0FA80F3D218A2F106
:103880000B02B2F12003A4EB02040CD2C2F120031C
:1038900001FA02F120FA03F341EA030100FA02F00F
:1038A000C2F1200303E000FA03F14FF0000001EB46
:1038B000CE71002C01EB0451BDE81040A8BF704749
:1038C00001F1C0414FF0000001F00041704701EBF1
:1038D000045110BD491001EB0451BDE810404FEAFE
:1038E000300002E04FF0000170474FF0120C4A0028
:1038F00008BF0042F6D0B2F5001F28BF704701F0A4
:1039000000414FF0000070479CEA445F07D0BDE8DB
:10391000104011EA5C0F04BF00210020704701280D
:1039200041EB0104012A43EB030E644598BFE645D1
:10393000DFF848C0BDE810403FF628ADAFF3008087
:10394000012841EB0100012A43EB0302904209D018
:1039500010F5001F04BF0020704783F000414FF0B6
:103960000000704791EA030F4FF0000048BF704716
:1039700003494FF0000070470000E0FF1200000410
:103980000000F87F094248BF4CF4803C4FF4C0630C
:103990004FEA115203F1010321EA025122F40062BD
:1039A0009A1A48BF6FF0FE0241F48011352A3CD8C4
:1039B00030D0152A1ED3203A0CD90028C2F120039A
:1039C00021FA02F001FA03F218BF42F001024FF0AF
:1039D000000130E0C2F1000302F1200201FA03F11C
:1039E00020FA02F241EA020100FA03F208464FF01F
:1039F000000120E0C2F1200310B400FA03F401FA40
:103A000003F320FA02F021FA02F1224610BC43EA45
:103A1000000010E050EA01324FF000004FF00001CA
:103A20004FF0004218BF521C05E04FF001024FF06A
:103A300000014FF000001CF4803F2CF4803C18BFC4
:103A400041F00041124208BF7047520003D303D037
:103A5000401C41F1000170475FEAAC72F8D4FAD122
:103A6000401C41F1000120F00100F4E7704770476D
:103A700000F5000C1CF0FE4F09D0C1104FEA407059
:103A800001F1605158BF7047A1F1E04170471CF44B
:103A9000000F08D00146400008BF70474FF00000FB
:103AA0004FEA30017047DFF814C0420240F008804E
:103AB000AFF3008040F4E0011046704718000004A6
:103AC000014800F01CB800000000C07F10F0004268
:103AD00018BF404242F08042B0FA80F18840A2EB29
:103AE000C15202F1786208BF7047410642EB2020C4
:103AF00018BF5FF0806C28BF20F0010070470CF009
:103B00000F03092B08BF082000F02B800A2B0BD0D5
:103B1000082B18BF704708BF1CF0400F0AD04FF0A9
:103B200000004FF0000170471CF0400F18BF4FF02D
:103B3000004070471CF0100F08D020F0704300F0D8
:103B40007F4242EAD3014FEA4370704700F0604081
:103B500021F07F4242EA000201F07F4040EA7270A9
:103B600070471CF4801F11D01CF4E02F03D06FEAC3
:103B7000CC31490070474FF04050EFF3008222F003
:103B8000704242EA000282F3008870474FF0000062
:103B900070470000000000000000002F000000003F
:103BA0000700070000147F147F1400242A7F2A12C4
:103BB00000626408132300364955225000000503B3
:103BC000000000001C224100000041221C000014E3
:103BD000083E08140008083E0808000000A0600025
:103BE00000080808080800006060000000201008B5
:103BF0000402003E5149453E0000427F4000004221
:103C000061514946002141454B31001814127F1083
:103C1000002745454539003C4A49493000017109B2
:103C2000050300364949493600064949291E000066
:103C3000363600000000563600000008142241000D
:103C4000001414141414000041221408000201513D
:103C5000090600324959513E007C1211127C007F46
:103C600049494936003E41414122007F4141221CE1
:103C7000007F49494941007F09090901003E414946
:103C8000497A007F0808087F0000417F410000203A
:103C900040413F01007F08142241007F40404040E6
:103CA000007F020C027F007F0408107F003E41412C
:103CB000413E007F09090906003E4151215E007F17
:103CC000091929460046494949310001017F01018E
:103CD000003F4040403F001F2040201F003F403831
:103CE000403F006314081463000708700807006170
:103CF0005149454300007F41410000552A552A554E
:103D0000000041417F0000040201020400404040E5
:103D10004040000001020400002054545478007F09
:103D20004844443800384444442000384444487FE0
:103D300000385454541800087E0901020018A4A445
:103D4000A47C007F080404780000447D400000400B
:103D500080847D00007F102844000000417F4000E7
:103D6000007C04180478007C08040478003844447B
:103D7000443800FC242424180018242418FC007C57
:103D80000804040800485454542000043F444020D0
:103D9000003C4040207C001C2040201C003C403067
:103DA000403C004428102844001CA0A0A07C0044F3
:103DB00064544C441414141414140A32C2321E08ED
:103DC00007E404140C0004030003080403000304C4
:103DD000080011F200FE824100FE0202FE00080708
:103DE00008090808080F080909002010FC0310CF73
:103DF00004F404548C0000000F000201080F0000BE
:103E000003008C45F55555EF455555550C00000000
:103E100007050507050505050400007F416555CF29
:103E2000556541FF00000403000704040504070072
:103E3000030020222AB262FF62B22A22200002027C
:103E4000010000070000010202008884F3929292B0
:103E5000FE92929282000000000000000700000025
:103E60000000000000FF49494949FF00000000042C
:103E7000020100000404070000000000FF111111FE
:103E8000111111FF000000000702020202020207E6
:103E90000000FE2222FE04146404FF040400030157
:103EA0000103000004040700000020102C23E02080
:103EB0002023EC1020000404020100040404030089
:103EC00000008A6AFF29483C007F00C418000100F6
:103ED00007040404020201000000897200C05FD5DB
:103EE00055D555DF00000700040704070407040741
:103EF000040000FE0A8ABEAAABAABE0A0A00060196
:103F0000040404030203040404003138363130325F
:103F10003537383130003133393131303636373397
:103F200033003133383130323232323933003133C9
:103F30003831303135343331350031333931303681
:103F40003031303136003133333031303036353383
:103F50003600313836303035313132323800313395
:103F60003931313537323634380031333831313642
:103F7000393637343900202020202120416C6572E9
:103F8000742021202020200D54657374696E6720F1
:103F9000726F6F6D2074656D706572617475726596
:103FA00020726973657320746F203A0D0020202001
:103FB000212120416C6572742021212020200D5484
:103FC000657374696E6720726F6F6D2074656D70B4
:103FD0006572617475726520726973657320746FA0
:103FE000203A0D00202021212120416C657274208F
:103FF00021212120200D54657374696E6720726F32
:104000006F6D2074656D7065726174757265207274
:104010006973657320746F203A0D002021212121DE
:1040200020416C6572742021212121200D5465737B
:1040300074696E6720726F6F6D2074656D70657244
:10404000617475726520726973657320746F203AAC
:104050000D0044657669636520537461727465640C
:104060002E0D54657374696E6720726F6F6D2063D7
:10407000757272656E742074656D706572617475A9
:1040800072653A0D003A2D2920416C61726D204312
:104090006C656172203A2D290D54657374696E67E1
:1040A00020726F6F6D2074656D70657261747572CA
:1040B000652066616C6C7320746F3A0D002A2A2AA1
:1040C0004E6F74696669636174696F6E2A2A2A0D7E
:1040D00054657374696E6720726F6F6D2074656DBF
:1040E00070657261747572652066616C6C732074A2
:1040F0006F3A0D0054657374696E6720726F6F6D4F
:104100002063757272656E742074656D706572617E
:10411000747572653A2000003841000800000020E4
:10412000C000000028010008F8410008C00000207D
:10413000680B00004401000805001E000500000097
:104140000000000000000000223F00082E3F000891
:104150006A3F00083A3F0008523F0008223F00082B
:104160002E3F00086A3F0008463F00083A3F00081B
:10417000523F00080A3F00085E3F0008163F000853
:104180000000000000A24A0400000000000000003F
:1041900001020304060708090000000000000000F7
:1041A0000000000000000000303132333435363773
:1041B000383900000000010000000000000000008D
:1041C00052400008F4400008763F0008AD3F000868
:1041D000E43F00081B400008BD400008854000087F
:1041E00000000000000000000102030401020304BB
:0841F000060708090204060895
:04000005080000ED02
:00000001FF
